:100000008316850186014730810005148514051586
:100010008515051606108610061186110612831224
:1000200007309F00850186010130AA000230AB0035
:100030000330AC000430AD000530AE0006140608F5
:10004000BA00860186140608BB008601061506085C
:10005000BC00860186150608BD0086010616060846
:10006000BE008601051C3A28CB240518352801302E
:100070009A006028851C4228CB2485183D28023030
:100080009A006028051D4A28CB240519452803300D
:100090009A006028851D5228CB2485194D280430EC
:1000A0009A006028051E5A28CB24051A55280530C9
:1000B0009A0060280130C9070230C807DE243228C0
:1000C00086010130C902031D6A283A08AA000130DE
:1000D000A9008E280130C902031D73283B08AA001D
:1000E0000230A9008E280130C902031D7C283C087B
:1000F000AA000330A9008E280130C902031D8528FB
:100100003D08AA000430A9008E280130C902031D51
:1001100060283E08AA000530A9008E2806140608AB
:10012000BA00860186140608BB008601061506087B
:10013000BC00860186150608BD0086010616060865
:10014000BE0086010130C802031DAB283A08AB008F
:100150000130A800CF280130C802031DB4283B0895
:10016000AB000230A800CF280130C802031DBD2813
:100170003C08AB000330A800CF280130C802031DA3
:10018000C6283D08AB000430A800CF280130C802C3
:10019000031DA2283E08AB000530A800CF282A087E
:1001A0001A02031DD8281430B0003D30B100FC28DD
:1001B0002B081A02031DE1281030B0003D30B100B9
:1001C000FC282C081A02031DEA280C30B0003D3030
:1001D000B100FC282D081A02031DF3280A30B000D4
:1001E0003D30B100FC282E081A02031D32280830C9
:1001F000B0003D30B100FC288601D2242A088600D8
:10020000BF248601D2242B088600BF248601D22475
:100210000230A00006140608BA00860186140608FB
:10022000BB00860106150608BC0086018615060877
:10023000BD00860106160608BE008601051C27299A
:100240000130C0000614CB24051824295129851C2F
:1002500030290230C0008614CB2485182D2951295D
:10026000051D39290330C0000615CB240519362990
:100270005129851D42290430C0008615CB248519DB
:100280003F295129051E4B290530C0000616CB24F5
:10029000051A482951290230C8070130C907DE2450
:1002A0001E2986010130C902031D5B293A08DC00C2
:1002B0000130CC007F290130C902031D64293B08AD
:1002C000DC000230CC007F290130C902031D6D29FA
:1002D0003C08DC000330CC007F290130C902031D3B
:1002E00076293D08DC000430CC007F290130C902AA
:1002F000031D51293E08DC000530CC007F2906147F
:100300000608BA00860186140608BB008601061599
:100310000608BC00860186150608BD008601061683
:100320000608BE0086010130C802031D9C293A0858
:10033000DD000130CD00C0290130C802031DA52910
:100340003B08DD000230CD00C0290130C802031D8A
:10035000AE293C08DD000330CD00C0290130C802C1
:10036000031DB7293D08DD000430CD00C029013050
:10037000C802031D93293E08DD000530CD00C029C9
:100380000130A002031DC92940082802031D932C37
:10039000CE2940082902031D932C1E2986012A0814
:1003A0008600BF248601D2242B088600BF24860144
:1003B000D2245C088600BF248601D2245D08860012
:1003C000BF2486010230A0000330EC000430ED00B1
:1003D00006140608BA00860186140608BB008601CA
:1003E00006150608BC00860186150608BD008601B4
:1003F00006160608BE008601051C052A0130C0004D
:100400000614CB240518022A2F2A851C0E2A023036
:10041000C0008614CB2485180B2A2F2A051D172A05
:100420000330C0000615CB240519142A2F2A851D78
:10043000202A0430C0008615CB2485191D2A2F2AB6
:10044000051E292A0530C0000616CB24051A262AC7
:100450002F2A0230C8070130C907DE24FC29860193
:100460000130C902031D392A3A08DE000130CE00EE
:100470005D2A0130C902031D422A3B08DE0002301A
:10048000CE005D2A0130C902031D4B2A3C08DE0064
:100490000330CE005D2A0130C902031D542A3D08F5
:1004A000DE000430CE005D2A0130C902031D2F2A70
:1004B0003E08DE000530CE005D2A06140608BA00AC
:1004C000860186140608BB00860106150608BC00D6
:1004D000860186150608BD00860106160608BE00C0
:1004E00086010130C802031D7A2A3A08DF00013074
:1004F000CF009E2A0130C802031D832A3B08DF007B
:100500000230CF009E2A0130C802031D8C2A3C080D
:10051000DF000330CF009E2A0130C802031D952A58
:100520003D08DF000430CF009E2A0130C802031DC1
:10053000712A3E08DF000530CF009E2A0130ED020F
:10054000031DA72A40084D02031D932CBE2A01302B
:10055000EC02031DB02A40084C02031D932CFC2919
:100560000130A002031DB92A40082802031D932C64
:10057000FC2940082902031D932CFC2986012A0826
:100580008600BF248601D2242B088600BF24860162
:10059000D2245C088600BF248601D2245D08860030
:1005A000BF248601D2245E088600BF248601D2249F
:1005B0005F088600BF248601D2240230A0000330E9
:1005C000EC000430ED000530EE000630EF000614BC
:1005D0000608BA00860186140608BB0086010615C7
:1005E0000608BC00860186150608BD0086010616B1
:1005F0000608BE008601051C042B0130C00006144D
:10060000CB240518012B2E2B851C0D2B0230C0008E
:100610008614CB2485180A2B2E2B051D162B033090
:10062000C0000615CB240519132B2E2B851D1F2B5F
:100630000430C0008615CB2485191C2B2E2B051EDB
:10064000282B0530C0000616CB24051A252B2E2B8F
:100650000230C8070130C907DE24FB2A86010130B9
:10066000C902031D382B3A08E0000130C1005C2BA1
:100670000130C902031D412B3B08E0000230C100DC
:100680005C2B0130C902031D4A2B3C08E0000330FB
:10069000C1005C2B0130C902031D532B3D08E00053
:1006A0000430C1005C2B0130C902031D2E2B3E0813
:1006B000E0000530C1005C2B06140608BA00860174
:1006C00086140608BB00860106150608BC008601D4
:1006D00086150608BD00860106160608BE008601BE
:1006E00086010130C802031D7A2B3A08E10001306F
:1006F000C2009E2B0130C802031D832B3B08E10082
:100700000230C2009E2B0130C802031D8C2B3C0816
:10071000E1000330C2009E2B0130C802031D952B5F
:100720003D08E1000430C2009E2B0130C802031DC9
:10073000702B3E08E1000530C2009E2B0130EF0215
:10074000031DA72B40084F02031D932CD02B013013
:10075000EE02031DB02B40084E02031D932CFB2A12
:100760000130ED02031DB92B40084D02031D932CEF
:10077000FB2A0130EC02031DC22B40084C02031D72
:10078000932CFB2A0130A002031DCB2B400828022A
:10079000031D932CFB2A40082902031D932CFB2ADE
:1007A00086012A088600BF248601D2242B088600F1
:1007B000BF248601D2245C088600BF248601D2248F
:1007C0005D088600BF248601D2245E088600BF240F
:1007D0008601D2245F088600BF248601D224D22459
:1007E00060088600BF248601D22461088600BF24E9
:1007F00086010230A0000330EC000430ED0005302B
:10080000EE000630EF000730E2000830E300061487
:100810000608BA00860186140608BB008601061584
:100820000608BC00860186150608BD00860106166E
:100830000608BE008601051C242C0130C0000614E9
:10084000CB240518212C4E2C851C2D2C0230C000E9
:100850008614CB2485182A2C4E2C051D362C0330EB
:10086000C0000615CB240519332C4E2C851D3F2CBA
:100870000430C0008615CB2485193C2C4E2C051E57
:10088000482C0530C0000616CB24051A452C4E2CEA
:100890000230C8070130C907DE241B2C8601013055
:1008A000E302031D582C40084202031D932CAB2C7D
:1008B0000130E202031D612C40084102031D932C0C
:1008C0001B2C0130EF02031D6A2C40084F02031D50
:1008D000932C1B2C0130EE02031D732C40084E029A
:1008E000031D932C1B2C0130ED02031D7C2C4008B2
:1008F0004D02031D932C1B2C0130EC02031D852C93
:1009000040084C02031D932C1B2C0130A002031D38
:100910008E2C40082802031D932C1B2C4008290212
:10092000031D932C1B2C061486140615861506161B
:10093000D2248601D22406148614061586150616BE
:10094000BF248601D22406148614061586150616C1
:10095000D224860132280614BF248614BF2406152B
:10096000BF248615BF240616BF248601BF240614A3
:100970008614061586150616BF24860132288101C5
:100980003008FF000B113D3081000B1DC52CC82C19
:10099000FF0BC22C080081013D3081000B1DCE2CC5
:1009A0000B11080081010430F8000B113D3081006B
:1009B0000B1DD82CDB2CF80BD52C08008101013045
:1009C000C7000B11FF3081000B1DE42CE72CC70B77
:0409D000E12C08000E
:02400E00503F21
:00000001FF
