:1000000083168501860105148514061786160610C9
:100010008312850186012B28061F11280F2806143C
:100020002B28861E1B281428051C172819280610A3
:100030002B2806142B2806102B2806102E28061015
:1000400031282228061431280614312806103128B8
:10005000061F1F282428851C1D280C28051C26285F
:100060002828051C3428362806103D28061F392864
:100070003B2806103D2806143128851C40284228BC
:1000800006102B28061F4728452806143D28061071
:020090002B281B
:02400E00F13F80
:00000001FF
