:10000000831685018601833081000514851405154A
:100010008515061086100611861106128612061323
:10002000861383128501860101309B0002309D00FA
:100030000330BA000430BB000530CA000630CB00E4
:100040000730CC0001309A00051C2428051826280A
:10005000051D512805192A282D281B081A02031DE1
:1000600033289A0A51281D081A02031D39289A0AB2
:1000700051283A081A02031D3F289A0A51283B08C2
:100080001A02031D45289A0A51284A081A02031D1C
:100090004B289A0A51284B081A02031D51289A0A24
:1000A0005128851D7A288519532856284C081A028C
:1000B000031D5C289A037A284B081A02031D622844
:1000C0009A037A284A081A02031D68289A037A2894
:1000D0003B081A02031D6E289A037A283A081A026E
:1000E000031D74289A037A281D081A02031D7A2812
:0600F0009A037A2826287D
:02400E00F13F80
:00000001FF
