:100000008316850186014730810005148514051586
:100010008515061086100611861106128612061323
:10002000861383128501860101309B0002309C00FB
:100030000330BA000430BB000530CA000630CB00E4
:100040000730CC0002309A000130AA0004309D0035
:100050003D30AC00051C2A282D28861605182D28B1
:100060003128051D3428A228851D3728CF28851C56
:100070003D283A2885183A2831281B082A02031DF2
:100080004228722806178613861006118615061652
:10009000FB208614061186110616FB208614061511
:1000A00086110612FB208610061586150612FB2007
:1000B000051C5B286628051D5E28A228851D612871
:1000C000CF28851C42280130AA003A288610061144
:1000D000861106128612061386130230AA0005182E
:1000E0006F282A280613861786140615861106120D
:1000F000FB208614061186110616FB2086100611B9
:1001000086150616FB208610061586150612FB209E
:10011000051C97288B288610061186110612861258
:10012000061386130130AA00051894282A28051DF5
:100130009A28A228851D9D28CF28851C7228023068
:10014000AA003A280519A228A5281C081A02031D8E
:10015000AF289A0A02309D003D30AC0034283A089E
:100160001A02031DBA28B4289A0A01309D003D30B6
:10017000AC0034283B081A02031DC128BF289A0A84
:1001800034284A081A02031DC828C6289A0A3428A7
:100190004B081A02031D3128CD289A0A34288519E4
:1001A000CF28D2284C081A02031DD928D7289A0331
:1001B00031284B081A02031DE028DE289A03312853
:1001C0004A081A02031DE728E5289A0331283B084C
:1001D0001A02031DEE28EC289A0331283A081A0265
:1001E000031DF528F3289A0331281C081A02031D61
:1001F00031289A03312881011D08BD000B112C08FC
:0E02000081000B1D01290429BD0BFE280800FA
:02400E00F13F80
:00000001FF
