:1000000083168501860105148514051585150610CE
:1000100086100611861106128612061386138312A5
:10002000850186011328051C16281F2806100611B5
:100030000612061386108611861286134D28051D9A
:10004000222823283828851D26282F280610061147
:1000500006120613861086118612861313280610C0
:10006000861006158615061686160613861313289F
:10007000851D44283B28061406150616061786100B
:10008000861186128613132806100611061206130F
:1000900086108611861286131328851C502859282D
:1000A0000610861006118611061286120613861394
:1000B0006E28851D5C28652806108610061186119D
:1000C00006128612061386134D2806148610061192
:1000D000861106128612061386174D28051D8D28D7
:1000E0007128051C742875288A28851D7828812880
:1000F0000610861006118611061286120613861344
:100100006E28061086100615861506168616061326
:1001100086136E28851D9F289628061086100611C6
:1001200086110612861206138613132806148614E7
:100130000611861106128612061786176E280610FB
:1001400086100611861106128612061386136E2873
:02400E00F13F80
:00000001FF
