:100000008316850186014730810005148514051586
:100010008515051606108610061186110612831224
:1000200007309F000130AA000230AB000330AC0063
:100030000430AD000530AE0006140608BA00860193
:1000400086140608BB00860106150608BC0086015A
:1000500086150608BD00860106160608BE00860144
:1000600085018601051C3A288723051835280130AB
:100070009A005A28851C4228872385183D2802307B
:100080009A005A28051D4A28872305194528033058
:100090009A005A28851D5228872385194D28043037
:1000A0009A005A28051E32288723051A552805303C
:1000B0009A005A282A081A02031D63281430B00037
:1000C0003D30B10087282B081A02031D6C280E3022
:1000D000B0003D30B10087282C081A02031D752896
:1000E0000A30B0003D30B10087282D081A02031DE8
:1000F0007E280830B0003D30B10087282E081A0253
:10010000031D32280330B0003D30B100872886013E
:100110008E2306147B2306108E2386157B238601EF
:100120008E230130CA000430CB000230A000051C31
:10013000A0280130C0000614872305189D28CA286E
:10014000851CA9280230C000861487238518A6289C
:10015000CA28051DB2280330C000061587230519DB
:10016000AF28CA28851DBB280430C0008615872308
:100170008519B828CA28051EC4280530C0000616EF
:100180008723051AC128CA280230C8070130C907C9
:100190009A23972886010130C902031DD4283A0802
:1001A000DC000130CC00F8280130C902031DDD2835
:1001B0003B08DC000230CC00F8280130C902031DE6
:1001C000E6283C08DC000330CC00F8280130C902E6
:1001D000031DEF283D08DC000430CC00F828013076
:1001E000C902031DCA283E08DC000530CC00F828EF
:1001F00006140608BA00860186140608BB008601AC
:1002000006150608BC00860186150608BD00860195
:1002100006160608BE0086010130C802031D152916
:100220003A08DD000130CD0039290130C802031D34
:100230001E293B08DD000230CD0039290130C802FB
:10024000031D27293C08DD000330CD00392901308A
:10025000C802031D30293D08DD000430CD003929D6
:100260000130C802031D0C293E08DD000530CD0019
:1002700039290130A002031D422940084B02031D09
:100280004F2B472940084A02031D4F2B9728860110
:100290008E2306147B2306108E2386157B2386016E
:1002A0008E235C0886007B2386018E235D088600F2
:1002B0007B2386010130CA000430CB000230A0004D
:1002C0000330EC000430ED0006140608BA00860185
:1002D00086140608BB00860106150608BC008601C8
:1002E00086150608BD00860106160608BE008601B2
:1002F000051C81290130C0000614872305187E29BA
:10030000AB29851C8A290230C000861487238518F2
:100310008729AB29051D93290330C00006158723C3
:1003200005199029AB29851D9C290430C00086152C
:10033000872385199929AB29051EA5290530C000F9
:1003400006168723051AA229AB290230C8070130F7
:10035000C9079A23782986010130C902031DB529EE
:100360003A08DE000130CE00D9290130C902031D50
:10037000BE293B08DE000230CE00D9290130C90277
:10038000031DC7293C08DE000330CE00D929013007
:10039000C902031DD0293D08DE000430CE00D92952
:1003A0000130C902031DAB293E08DE000530CE0036
:1003B000D92906140608BA00860186140608BB006F
:1003C000860106150608BC00860186150608BD00D4
:1003D000860106160608BE0086010130C802031D0C
:1003E000F6293A08DF000130CF001A2A0130C8028E
:1003F000031DFF293B08DF000230CF001A2A01301D
:10040000C802031D082A3C08DF000330CF001A2A67
:100410000130C802031D112A3D08DF000430CF005F
:100420001A2A0130C802031DED293E08DF000530FD
:10043000CF001A2A0130ED02031D232A40084D0285
:10044000031D4F2B3A2A0130EC02031D2C2A4008D1
:100450004C02031D4F2B78290130A002031D352AC1
:1004600040084B02031D4F2B782940084A02031D08
:100470004F2B782986018E2306147B2306108E23AA
:1004800086157B2386018E235C0886007B238601EC
:100490008E235D0886007B2386018E235E088600FE
:1004A0007B2386018E235F0886007B2386018E23B3
:1004B0000130CA000430CB000230A0000330EC0051
:1004C0000430ED000530EE000630EF00061406089B
:1004D000BA00860186140608BB00860106150608C8
:1004E000BC00860186150608BD00860106160608B2
:1004F000BE008601051C832A0130C0000614872334
:100500000518802AAD2A851C8C2A0230C00086146A
:1005100087238518892AAD2A051D952A0330C00036
:10052000061587230519922AAD2A851D9E2A0430B7
:10053000C0008615872385199B2AAD2A051EA72A88
:100540000530C00006168723051AA42AAD2A0230FA
:10055000C8070130C9079A23662A86010130C902FB
:10056000031DB72A3A08E0000130C100DB2A013040
:10057000C902031DC02A3B08E0000230C100DB2A8B
:100580000130C902031DC92A3C08E0000330C10044
:10059000DB2A0130C902031DD22A3D08E0000430E5
:1005A000C100DB2A0130C902031DAD2A3E08E0006C
:1005B0000530C100DB2A06140608BA00860186143D
:1005C0000608BB00860106150608BC0086018615D4
:1005D0000608BD00860106160608BE0086018601D3
:1005E0000130C802031DF92A3A08E1000130C200B7
:1005F0001D2B0130C802031D022B3B08E100023015
:10060000C2001D2B0130C802031D0B2B3C08E1006A
:100610000330C2001D2B0130C802031D142B3D08FE
:10062000E1000430C2001D2B0130C802031DEF2A77
:100630003E08E1000530C2001D2B0130EE02031D13
:10064000262B40084E02031D4F2B672B0130ED0275
:10065000031D2F2B40084F02031D4F2B662A01302C
:10066000ED02031D382B40084D02031D4F2B662A57
:100670000130EC02031D412B40084C02031D4F2B9F
:10068000662A0130A002031D4A2B40084B02031DBD
:100690004F2B662A40084A02031D4F2B662A061478
:1006A00086140615861506168E2386018E230614DB
:1006B00086140615861506167B2386018E230614DE
:1006C00086140615861506168E2386013228061412
:1006D0008E2386148E2306158E2386158E230616EA
:1006E0008E2386018E23061486140615861506169B
:1006F0008E238601322881013008BF000B113D3066
:1007000081000B1D812B842BBF0B7E2B08008101E8
:100710003D3081000B1D8A2B0B1108008101053033
:10072000C8000B113D3081000B1D942B972BC80B7B
:10073000912B080081010130C7000B11FF308100AF
:0C0740000B1DA02BA32BC70B9D2B08004A
:02400E00503F21
:00000001FF
