:10000000831686018730810005168617051485142E
:1000100005158515831285018601051E29281028DE
:100020003820051E0D281428851D172820280508AE
:100030009A001A08860006121D28051E0D281D2884
:10004000851C242823281D28051D282827281D282D
:100050001728861F0D282C282D284020031D352801
:100060008603031D342835282C28861F0D283528A3
:100070008101FF3081000B1D3B283E280B11080039
:10008000AA019B011B086430AA00C830AA0B4628AD
:060090009B0B462808004E
:02400E00F13F80
:00000001FF
