:100000008316850186014730810005148514051586
:100010008515051606108610061186110612013088
:10002000AA000230AB000330AC000430AD00053054
:10003000AE0006140608BA00860186140608BB0046
:10004000860106150608BC00860186150608BD0057
:10005000860183128501860106140608BA0086010E
:1000600086140608BB00860106150608BC0086013A
:1000700086150608BD00860106160608BE00860124
:10008000051C482820240518432801309A006828B8
:10009000851C5028202485184B2802309A00682897
:1000A000051D582820240519532803309A00682874
:1000B000851D6028202485195B2804309A00682853
:1000C000051E40282024051A632805309A00682858
:1000D0002A081A02031D71281430B0003D30B10007
:1000E00095282B081A02031D7A281030B0003D30E5
:1000F000B10095282C081A02031D83280C30B0008B
:100100003D30B10095282D081A02031D8C280A30B5
:10011000B0003D30B10095282E081A02031D40287A
:100120000830B0003D30B100952886010614142433
:1001300006100130CA00051CA7280130C0000614B3
:1001400020240518A428D7280130C907A128851C18
:10015000B3280230C000861420248518B028D72880
:100160000130C907AD28051DBF280330C0000615A2
:1001700020240519BC28D7280130C907B928851DB6
:10018000CB280430C000861520248519C828D7281C
:100190000130C907C528051E9B280530C00006167A
:1001A0002024051AD428D7280130C907D1283324A0
:1001B00086010F30C902031DE2283A089B00013076
:1001C000CB00232933240F30C902031DEC283B0840
:1001D0009B000230CB00232933240F30C902031DBA
:1001E000F6283C089B000330CB00232933240F3032
:1001F000C902031D00293D089B000430CB002329C0
:1002000033240F30C902031DD7283E089B00053058
:10021000CB0023293A089B000130CB0023293B085F
:100220009B000230CB0023293C089B000330CB000D
:1002300023293D089B000430CB0023293E089B0066
:100240000530CB00232940084A02031DE82B28294A
:10025000860106141424061027241B088600142483
:1002600086010230900006140608BA008601861442
:100270000608BB00860106150608BC008601861527
:100280000608BD00860106160608BE008601051C8C
:1002900053290130C0000614202405185029832951
:1002A0000130C9074D29851C5F290230C000861422
:1002B000202485185C2983290130C9075929051D87
:1002C0006B290330C00006152024051968298329ED
:1002D0000130C9076529851D77290430C0008615BE
:1002E00020248519742983290130C9077129051E25
:1002F00047290530C00006162024051A80298329C5
:100300000130C9077D2986010F30C902031D8D29DF
:100310003A089C000130CC00B1290F30C902031DFE
:1003200096293B089C000230CC00B1290F30C9024D
:10033000031D9F293C089C000330CC00B1290F30DD
:10034000C902031DA8293D089C000430CC00B12936
:100350000F30C902031D83293E089C000530CC00E4
:10036000B12901309002031DBA2940084B02031D38
:10037000E82BC02940084A02031DE82B27244729FF
:10038000860106141424061027241B088600142452
:10039000860127241C088600142486010230900060
:1003A00003308C0006140608BA008601861406087D
:1003B000BB00860106150608BC00860186150608E6
:1003C000BD00860106160608BE008601051CF2293E
:1003D0000130C000061420240518EF29222A01301C
:1003E000C907EC29851CFE290230C0008614202490
:1003F0008518FB29222A0130C907F829051D0A2A78
:100400000330C000061520240519072A222A0130CE
:10041000C907042A851D162A0430C0008615202429
:100420008519132A222A0130C907102A051EE62938
:100430000530C00006162024051A1F2A222A013082
:10044000C9071C2A86010F30C902031D2C2A3A084D
:100450009D000130CD00502A0F30C902031D352AFE
:100460003B089D000230CD00502A0F30C902031D09
:100470003E2A3C089D000330CD00502A0F30C902AF
:10048000031D472A3D089D000430CD00502A0F303F
:10049000C902031D232A3E089D000530CD00502AC5
:1004A00001308C02031D592A40084C02031DE82B21
:1004B000682A01309002031D622A40084B02031D86
:1004C000E82BE62940084A02031DE82B2724E629E9
:1004D000860106141424061027241B088600142401
:1004E000860127241C0886001424860127241D0861
:1004F0008600142486010230900003308C00043002
:100500008D0006140608BA00860186140608BB0092
:10051000860106150608BC00860186150608BD0082
:10052000860106160608BE008601051CA12A0130B8
:10053000C0000614202405189E2AD12A0130C907BC
:100540009B2A851CAD2A0230C00086142024851801
:10055000AA2AD12A0130C907A72A051DB92A0330C2
:10056000C000061520240519B62AD12A0130C90772
:10057000B32A851DC52A0430C0008615202485199C
:10058000C22AD12A0130C907BF2A051E952A053083
:10059000C00006162024051ACE2AD12A0130C90728
:1005A000CB2A86010F30C902031DDB2A3A089E00C0
:1005B0000130CE00FF2A0F30C902031DE42A3B0898
:1005C0009E000230CE00FF2A0F30C902031DED2A23
:1005D0003C089E000330CE00FF2A0F30C902031DE5
:1005E000F62A3D089E000430CE00FF2A0F30C902D3
:1005F000031DD22A3E089E000530CE00FF2A01309E
:100600008D02031D082B40084D02031DE82B202BF3
:1006100001308C02031D112B40084C02031DE82BF6
:10062000952A01309002031D1A2B40084B02031D2E
:10063000E82B952A40084A02031DE82B2724952A17
:10064000860106141424061027241B08860014248F
:10065000860127241C0886001424860127241D08EF
:1006600086001424860127241E088600142486018F
:100670000230900003308C0004308D0005308E0075
:1006800006140608BA00860186140608BB00860117
:1006900006150608BC00860186150608BD00860101
:1006A00006160608BE008601051C602B0130C0003E
:1006B0000614202405185D2B902B0130C9075A2BF6
:1006C000851C6C2B0230C000861420248518692BF1
:1006D000902B0130C907662B051D782B0330C00015
:1006E000061520240519752B902B0130C907722B94
:1006F000851D842B0430C000861520248519812B8C
:10070000902B0130C9077E2B051E542B0530C000ED
:1007100006162024051A8D2B902B0130C9078A2B31
:1007200086010F30C902031D9A2B3A089F00013041
:10073000CF00BE2B0F30C902031DA32B3B089F0027
:100740000230CF00BE2B0F30C902031DAC2B3C087A
:100750009F000330CF00BE2B0F30C902031DB52B05
:100760003D089F000430CF00BE2B0F30C902031D8F
:10077000912B3E089F000530CF00BE2B01308E022A
:10078000031DC72B40084E02031DE82B002C01302F
:100790008D02031DD02B40084D02031DE82B542B66
:1007A00001308C02031DD92B40084C02031DE82B9D
:1007B000542B01309002031DE22B40084B02031D15
:1007C000E82B542B40084A02031DE82B2724542B06
:1007D000061486140615861506161424860114249C
:1007E000061486140615861506161424860114248C
:1007F000061486140615861506161424860140284C
:02400E00F13F80
:00000001FF
