:100000008316850186014730810005148514051586
:100010008515061086100611861106128612061323
:10002000861383128501860101309B0002309C00FB
:100030000330BA000430BB000530CA000630CB00E4
:100040000730CC0001309A000130AA0004309D0036
:100050003D30AC00051C2A282D283821051C2A28F3
:1000600031280518312886163528051D3828A62878
:10007000851D3B28E928851C41283E2885183E28F7
:1000800035281B082A02031D4628762806178613E2
:1000900086100611861506162C2186140611861167
:1000A00006162C2186140615861106122C218610A0
:1000B0000615861506122C21051C5F286A28051DC9
:1000C0006228A628851D6528E928851C4628013058
:1000D000AA003E2886100611861106128612061303
:1000E00086130230AA00051873282A2806138617DB
:1000F00086140615861106122C2186140611861107
:1001000006162C2186100611861506162C2186103F
:100110000615861506122C21051C9B288F28861093
:100120000611861106128612061386130130AA00E4
:10013000051898282A28051D9E28A628851DA1286F
:10014000E928851C76280230AA003E280519A62831
:10015000A9281B081A02031DB3289A0A02309D0021
:100160003D30AC0038281C081A02031DBE28B828F0
:100170009A0A02309D007E30AC0038283A081A02F4
:10018000031DC928C3289A0A01309D003D30AC00E8
:1001900038283B081A02031DD428CE289A0A0130B9
:1001A0009D006430AC0038284A081A02031DDF287D
:1001B000D9289A0A01309D007E30AC0038284B08BF
:1001C0001A02031D35289A0A01309D009130AC00B7
:1001D00038288519E928EC284C081A02031DF7284D
:1001E000F1289A0301309D007E30AC0035284B0881
:1001F0001A02031D0229FC289A0301309D00643075
:10020000AC0035284A081A02031D0D2907299A0354
:1002100001309D003D30AC0035283B081A02031D1B
:10022000182912299A0302309D007E30AC0035282F
:100230003A081A02031D22299A0302309D003D301C
:10024000AC0035281C081A02031D35289A03043017
:100250009D003D30AC00352881011D08BD000B110B
:100260002C0881000B1D32293529BD0B2F290800D0
:10027000AD01AE01FF30AE00FF30AD00AD0B3E2949
:0A0280004129AE0B3C294429080077
:02400E00F13F80
:00000001FF
