:100000008316850186014730810005148514051586
:100010008515061086100611861106128612061323
:10002000861383128501860101309B0002309C00FB
:100030000330BA000430BB000530CA000630CB00E4
:100040000730CC0002309A000130AA0004309D0035
:100050003D30AC00051C2A282D28861605182D28B1
:100060003128051D3428A228851D3728E128851C44
:100070003D283A2885183A2831281B082A02031DF2
:100080004228722806178613861006118615061652
:100090000D2186140611861106160D2186140615EB
:1000A000861106120D2186100615861506120D21E1
:1000B000051C5B286628051D5E28A228851D612871
:1000C000E128851C42280130AA003A288610061132
:1000D000861106128612061386130230AA0005182E
:1000E0006F282A280613861786140615861106120D
:1000F0000D2186140611861106160D218610061193
:10010000861506160D2186100615861506120D2178
:10011000051C97288B288610061186110612861258
:10012000061386130130AA00051894282A28051DF5
:100130009A28A228851D9D28E128851C7228023056
:10014000AA003A280519A228A5281C081A02031D8E
:10015000AF289A0A02309D003D30AC0034283A089E
:100160001A02031DBA28B4289A0A02309D007E3074
:10017000AC0034283B081A02031DC428BF289A0A81
:1001800001309D003D3034284A081A02031DCE2854
:10019000C9289A0A01309D00643034284B081A029D
:1001A000031DD828D3289A0A01309D007E303428B8
:1001B0004C081A02031D31289A0A01309D00913023
:1001C00034288519E128E4284C081A02031DEB287D
:1001D000E9289A0331284B081A02031DF228F02857
:1001E0009A0331284A081A02031DF928F7289A03AE
:1001F00031283B081A02031D0029FE289A033128E2
:100200003A081A02031D072905299A0331281C08F8
:100210001A02031D31289A03312881011D08BD00EF
:100220000B112C0881000B1D13291629BD0B102959
:020230000800C4
:02400E00F13F80
:00000001FF
