:100000008316850186014730810005148514051586
:100010008515051606108610061186110612013088
:10002000AA000230AB000330AC000430AD00053054
:10003000AE0083128501860106140608BA00860107
:1000400086140608BB00860106150608BC0086015A
:1000500086150608BD00860106160608BE00860144
:10006000051C38282E210518332801309A005828FD
:10007000851C40282E2185183B2802309A005828DC
:10008000051D48282E210519432803309A005828B9
:10009000851D50282E2185194B2804309A00582898
:1000A000051E30282E21051A532805309A0058289D
:1000B0002A081A02031D61281430B0003D30B10037
:1000C00085282B081A02031D6A281030B0003D3025
:1000D000B10085282C081A02031D73280C30B000CB
:1000E0003D30B10085282D081A02031D7C280A30F6
:1000F000B0003D30B10085282E081A02031D3028BB
:100100000830B0003D30B100852886010614222158
:1001100006100130CA00051CA4280130C0000614D6
:100120002E210518942808292E21051898280D2914
:100130002E2105189C2812292E210518A0281729E0
:100140002E21051890281C29851CBD280230C000CE
:1001500086142E218518AD2808292E218518B1284E
:100160000D292E218518B52812292E218518B92888
:1001700017292E218518A9281C29051DD6280330EA
:10018000C00006152E210519C62808292E2105199B
:10019000CA280D292E210519CE2812292E2105192C
:1001A000D22817292E210519C2281C29851DEF28C0
:1001B0000430C00086152E218519DF2808292E213C
:1001C0008519E3280D292E218519E72812292E21CA
:1001D0008519EB2817292E218519DB281C29051ED6
:1001E0008B280530C00006162E21051AF82808298C
:1001F0002E21051AFC280D292E21051A0029122965
:100200002E21051A042917292E21851AF4281C29C4
:100210003A089B000130CB0021293B089B000230AB
:10022000CB0021293C089B000330CB0021293D084D
:100230009B000430CB0021293E089B000530CB00F9
:100240002129302881013008BD000B1131088100BF
:100250000B1D28292B29BD0B252908008101FF3002
:0A02600081000B1D31290B1108006D
:02400E00F13F80
:00000001FF
