:100000008316850186014730810005148514051586
:100010008515051606108610061186110612013088
:10002000AA000230AB000330AC000430AD00053054
:10003000AE0083128501860106140608BA00860107
:1000400086140608BB00860106150608BC0086015A
:1000500086150608BD00860106160608BE00860144
:10006000051C3828ED200518332801309A0058283F
:10007000851C4028ED2085183B2802309A0058281E
:10008000051D4828ED200519432803309A005828FB
:10009000851D5028ED2085194B2804309A005828DA
:1000A000051E3028ED20051A532805309A005828DF
:1000B0002A081A02031D61281430B0003D30B10037
:1000C00085282B081A02031D6A281030B0003D3025
:1000D000B10085282C081A02031D73280C30B000CB
:1000E0003D30B10085282D081A02031D7C280A30F6
:1000F000B0003D30B10085282E081A02031D3028BB
:100100000830B0003D30B100852886010614E1209A
:1001100006100130CA00051C97280130C0000614E3
:10012000ED2005189428C7280130C9079028851CA0
:10013000A3280230C0008614ED208518A028C72807
:100140000130C9079C28051DAF280330C0000615E3
:10015000ED200519AC28C7280130C907A828851D3E
:10016000BB280430C0008615ED208519B828C728A3
:100170000130C907B428051E8B280530C0000616BB
:10018000ED20051AC428C7280130C907C0283A083D
:100190009B000130CB00E0283B089B000230CB00E5
:1001A000E0283C089B000330CB00E0283D089B0082
:1001B0000430CB00E0283E089B000530CB00E0284F
:1001C000302881013008BD000B11310881000B1D62
:1001D000E728EA28BD0BE42808008101FF308100F0
:0801E0000B1DF0280B110800B3
:02400E00F13F80
:00000001FF
