:100000008A110A120E280000FF00030E8301FE0071
:1000100051207E0E8300FF0E7F0E0900831686019D
:10002000831283160710831283168710831207101A
:100030008710B101B2012C108B168B178316811219
:100040008312B3013308633C031C4D283308A0001E
:10005000A1010A30A200A3017F20AE003308A00056
:10006000A1010A30A200A3017F202408AF00810172
:100070002E08AD005E203008B1002F08AD005E20D4
:100080003008B20074207920F430A8000130A900B3
:100090009B200130B307031C22281F308305212831
:1000A00050282C1856282C1474205A281F308305E9
:1000B0002C1079201F3083050B1108002D08093CF6
:1000C000031C73286520B000732800308A002D08B7
:1000D00082073F3406345B344F3466346D347D34EC
:1000E00007347F346F340800871031088600071406
:1000F0000800071032088600871408007E28103098
:10010000A600A501A401210DA40DA50D2208A4029D
:100110002308031C230FA502031895282208A4070F
:1001200023080318230FA5070310A00DA10DA60B8C
:100130008328200808001030A8020001031C013E9B
:10014000A902031C0800A4280A30A8020001031C0D
:0A015000013EA902031C0800A428C8
:02400E00713D02
:00000001FF
