:100000008A110A120528000009008316FF308500B6
:10001000831283169F01831288118810081183169A
:10002000881188100811860183120230A000003068
:10003000A1008B203330EB203330EB203330EB202A
:100040003830EB200D30EB200130EB2083169F176A
:1000500000308312A000D02083161E088312AC004B
:100060001E08AD000130EB204130E1206E30E12070
:100070006130E1206C30E1206F30E1206730E12019
:100080002030E1206930E1206E30E1207030E12045
:100090007530E1207430E1202030E1204130E12052
:1000A0004E30E1203030E120C030EB205630E120EE
:1000B0006130E1206C30E1207530E1206530E120D5
:1000C0003A30E1202030E1202C08A4002D08A500C2
:1000D000F7200130A000A1018B2026286E281030C7
:1000E000A600A501A401210DA40DA50D2208A402BE
:1000F0002308031C230FA502031885282208A40740
:1001000023080318230FA5070310A00DA10DA60BAC
:10011000732820080800A008031996289D20A00332
:10012000000000000000000000008B28A108031957
:1001300008009D20A103A0038B280C30A500A50B6F
:100140009F28000000001230A200A20BAC28AE20B5
:10015000AE20000000000800AE20A5280D30A4004D
:10016000A40BB028000008000A30A802031C0800F5
:10017000B9280630A802031C0800B9281030A802CC
:100180000001031C013EA902031C0800C7280A3015
:10019000A8020001031C013EA902031C0800C72895
:1001A000A00DA00DA00D3830A005C13020049F0087
:1001B0000A30A800B4201F151F19DC280C131F10CB
:1001C0000800881408118600881500008811323054
:1001D000A800B420080088100811860088150000C7
:1001E0008811D030A8000730A900BE200800A7174A
:1001F0002730A300103008210330A300E830082185
:10020000A30164300821A3010A300821240813291E
:10021000A2002508A1002408A0006F202008031DCB
:0C022000A713A71B0800303EE1200800D7
:02400E00713D02
:00000001FF
