:100000008A110A120528000009007B309800990126
:10001000EA309A009B0118089200190893001A0808
:100020008E001B088F0018209C0011089D001728C7
:10003000103094008D018C01930C920C031C262827
:100040000E088C070F0803180F0F8D078D0C8C0CF2
:0C005000910C900C940B1C281008080068
:02400E00F13F80
:10420000FF00FE00FD00FC00FB00FA00F900F800D2
:10421000F700F600F500F400F300F200F100F00002
:10422000EF00EE00ED00EC00EB00EA00E900E80032
:10423000E700E600E500E400E300E200E100E00062
:10424000DF00DE00DD00DC00DB00DA00D900D80092
:10425000D700D600D500D400D300D200D100D000C2
:10426000CF00CE00CD00CC00CB00CA00C900C800F2
:10427000C700C600C500C400C300C200C100C00022
:00000001FF
