:100000008A110A120528000009000A309C000530F8
:100010001C02031C332883168610831286140630B4
:100020009800023099005B309A0000309B004E30FF
:100030009620753096206D3096206230962065307F
:100040009620723096203A309620203096201C0858
:1000500090009101B3200D3096200A309620013097
:100060009C02031807281F30830583160615831288
:1000700006309800043099005B309A0000309B00F5
:10008000D2209C00831686108312861406309800B6
:10009000023099005B309A0000309B004E30962071
:1000A000753096206D30962062309620653096200F
:1000B000723096203A309620203096201C0890000E
:1000C0009101B3200D3096200A30962035286728FC
:1000D00010309200910190010D0D900D910D0E08C0
:1000E00090020F08031C0F0F910203187E280E08C0
:1000F00090070F0803180F0F910703108C0D8D0D3B
:10010000920B6C280C080800103094020001031CAC
:10011000013E9502031C08008D280A30940200015C
:10012000031C013E9502031C08008D289600F43044
:10013000940001309500842018088400093097004D
:100140000310A820960C970BA1280314A8200800E0
:1001500000081904031C190680001A0894001B08E3
:10016000950084200800931727308F001030C4209A
:1001700003308F00E830C4208F016430C4208F0129
:100180000A30C4201008CF288E0011088D001008F6
:100190008C0068200C08031D9313931B0800303E4D
:1001A00096200800F1200318D2281A0894001B0892
:1001B0009500950C940C0310950C940C8420083039
:1001C00097001A0894001B0895008420F120960CD3
:1001D000970BE1281A0894001B0895008420160844
:0E01E00008001808840019080005FF3E0800FA
:02400E00F13F80
:00000001FF
