:1000000083168501860105108514051506108610D6
:1000100006118611061286120613861383128501B5
:100020008601051406148614061586110616861216
:10003000851C1B281E28051D11282B280611861536
:1000400006128616382006158611061286123820EA
:1000500006168612112806128616061186153820F5
:1000600006118611061686123820061586111128EB
:100070009A019B01AA011030AA00FF309B00FF30BB
:100080009A009A0B412844289B0B3F284728AA0B2B
:060090003D284A2808008B
:02400E00F13F80
:00000001FF
