:100000008316850186014730810005148514051586
:100010008515061086100611861106128612061323
:10002000861383128501860101309B0002309C00FB
:100030000330BA000430BB000530CA000630CB00E4
:100040000730CC0001309A000130AA0004309D0036
:100050003D30AC00051C2A282D285021051C2A28DB
:1000600031280518312886163528051D3828BE2860
:10007000851D3B280129851C41283E2885183E28DE
:1000800035281B082A02031D4628822806178613D6
:10009000861006118615061644218614061186114F
:1000A0000616442186140615861106124421861070
:1000B0000615861506124421051C62285021051CD0
:1000C00062287628051D68285021051D6828BE284D
:1000D000851D6E285021851D6E280129851C462806
:1000E0005021851C46280130AA003E2886100611A2
:1000F000861106128612061386130230AA0005180E
:100100007F282A28061386178614061586110612DC
:100110004421861406118611061644218610061104
:1001200086150616442186100615861506124421EA
:10013000051CAA285021051CAA289E2886100611F5
:10014000861106128612061386130130AA000518BE
:10015000A7282A28051DB0285021051DB028BE2833
:10016000851DB6284421851DB6280129851C8228B5
:100170005021851C82280230AA003E280519BE287D
:10018000C1281B081A02031DCB289A0A02309D00C1
:100190003D30AC0038281C081A02031DD628D02890
:1001A0009A0A02309D007E30AC0038283A081A02C4
:1001B000031DE128DB289A0A01309D003D30AC0088
:1001C00038283B081A02031DEC28E6289A0A013059
:1001D0009D006430AC0038284A081A02031DF72835
:1001E000F1289A0A01309D007E30AC0038284B0877
:1001F0001A02031D35289A0A01309D009130AC0087
:1002000038288519012904294C081A02031D0F29D1
:1002100009299A0301309D007E30AC0035284B0837
:100220001A02031D1A2914299A0301309D00643013
:10023000AC0035284A081A02031D25291F299A03F4
:1002400001309D003D30AC0035283B081A02031DEB
:1002500030292A299A0302309D007E30AC003528CF
:100260003A081A02031D3A299A0302309D003D30D4
:10027000AC0035281C081A02031D35289A030430E7
:100280009D003D30AC00352881011D08BD000B11DB
:100290002C0881000B1D4A294D29BD0B4729080058
:1002A000AD01AE01FF30AE00FF30AD00AD0B562901
:0A02B0005929AE0B54295C290800FF
:02400E00F13F80
:00000001FF
