:100000008316850186014730810005148514051586
:100010008515051606108610061186110612013088
:10002000AA000230AB000330AC000430AD00053054
:10003000AE0006140608BA00860186140608BB0046
:10004000860106150608BC00860186150608BD0057
:10005000860106160608BE00860183128501860108
:10006000051C38284E230518332801309A005828DB
:10007000851C40284E2385183B2802309A005828BA
:10008000051D48284E230519432803309A00582897
:10009000851D50284E2385194B2804309A00582876
:1000A000051E30284E23051A532805309A0058287B
:1000B0002A081A02031D61281430B0003D30B10037
:1000C00085282B081A02031D6A280E30B0003D3027
:1000D000B10085282C081A02031D73280A30B000CD
:1000E0003D30B10085282D081A02031D7C280830F8
:1000F000B0003D30B10085282E081A02031D3028BB
:100100000330B0003D30B10085288601061442233B
:1001100006100130CA00051C98280130C0000614E2
:100120004E2305189428CC280130C9076123912853
:10013000851CA5280230C00086144E238518A128EE
:10014000CC280130C90761239E28051DB228033041
:10015000C00006154E230519AE28CC280130C9076A
:100160006123AB28851DBF280430C00086154E23AF
:100170008519BB28CC280130C9076123B828051E82
:100180008B280530C00006164E23051AC828CC2837
:100190000130C9076123C528612386012D30C902BA
:1001A000031DD7283A089B000130CB001829612392
:1001B0002D30C902031DE1283B089B000230CB0013
:1001C000182961232D30C902031DEB283C089B0030
:1001D0000330CB00182961232D30C902031DF528F7
:1001E0003D089B000430CB00182961232D30C90243
:1001F000031DCC283E089B000530CB0018293A0887
:100200009B000130CB0018293B089B000230CB003B
:1002100018293C089B000330CB0018293D089B009F
:100220000430CB0018293E089B000530CB0018296C
:1002300040084A02031D162B1D298601061442237D
:10024000061055231B0886004223860102309000C9
:10025000552306140608BA00860186140608BB005A
:10026000860106150608BC00860186150608BD0035
:10027000860106160608BE008601051C49290130C4
:10028000C00006144E230518462979290130C907F4
:100290004329851C55290230C00086144E23851839
:1002A000522979290130C9074F29051D61290330D9
:1002B000C00006154E2305195E2979290130C907AA
:1002C0005B29851D6D290430C00086154E238519D4
:1002D0006A2979290130C9076729051E3D2905309A
:1002E000C00006164E23051A762979290130C90760
:1002F000732986010F30C902031D83293A089C0027
:100300000130CC00A7290F30C902031D8C293B08FE
:100310009C000230CC00A7290F30C902031D95298B
:100320003C089C000330CC00A7290F30C902031DF4
:100330009E293D089C000430CC00A7290F30C9023B
:10034000031D79293E089C000530CC00A729013007
:100350009002031DB02940084B02031D162BB6293D
:1003600040084A02031D162B55233D298601061419
:100370004223061055231B0886004223860155237D
:100380001C088600422386010230900003308C0056
:1003900006140608BA00860186140608BB0086010A
:1003A00006150608BC00860186150608BD008601F4
:1003B00006160608BE008601051CE8290130C000AB
:1003C00006144E230518E529182A0130C907E22929
:1003D000851CF4290230C00086144E238518F129AB
:1003E000182A0130C907EE29051D002A0330C00074
:1003F00006154E230519FD29182A0130C907FA29C7
:10040000851D0C2A0430C00086154E238519092A43
:10041000182A0130C907062A051EDC290530C0004C
:1004200006164E23051A152A182A0130C907122A62
:1004300086012330C902031D222A3A089D0001309B
:10044000CD00462A2330C902031D2B2A3B089D00FC
:100450000230CD00462A2330C902031D342A3C084D
:100460009D000330CD00462A2330C902031D3D2ADA
:100470003D089D000430CD00462A2330C902031DEB
:10048000192A3E089D000530CD00462A01308C0215
:10049000031D4F2A40084C02031D162B5E2A013013
:1004A0009002031D582A40084B02031D162BDC291D
:1004B00040084A02031D162B5523DC298601061429
:1004C0004223061055231B0886004223860155232C
:1004D0001C0886004223860155231D0886004223FE
:1004E00086010230900003308C0004308D00061429
:1004F0000608BA00860186140608BB0086010615A8
:100500000608BC00860186150608BD008601061691
:100510000608BE008601051C972A0130C00006149B
:100520004E230518942AC72A0130C907912A851C31
:10053000A32A0230C00086144E238518A02AC72A99
:100540000130C9079D2A051DAF2A0330C0000615DA
:100550004E230519AC2AC72A0130C907A92A851DCF
:10056000BB2A0430C00086154E238519B82AC72A35
:100570000130C907B52A051E8B2A0530C0000616B2
:100580004E23051AC42AC72A0130C907C12A860189
:100590000530C902031DD12A3A089E000130CE0061
:1005A000F52A0530C902031DDA2A3B089E000230F5
:1005B000CE00F52A0530C902031DE32A3C089E003F
:1005C0000330CE00F52A0530C902031DEC2A3D0890
:1005D0009E000430CE00F52A0530C902031DC82A4A
:1005E0003E089E000530CE00F52A01308D02031D25
:1005F000FE2A40084D02031D162B2E2B01308C02C3
:10060000031D072B40084C02031D162B8B2A0130BB
:100610009002031D102B40084B02031D162B8B2A42
:1006200040084A02031D162B55238B2A06148614F4
:1006300006158615061655238601552306148614BD
:1006400006158615061642238601552306148614C0
:1006500006158615061655238601302806145523DF
:100660008614552306154223861555230616552351
:10067000860155230614861406158615061655237D
:100680008601302881013008BF000B113D30810008
:100690000B1D482B4B2BBF0B452B080081013D3018
:1006A00081000B1D512B0B11080081010530C80082
:1006B0000B113D3081000B1D5B2B5E2BC80B582BA3
:1006C000080081010130C7000B11FF3081000B1DB4
:0A06D000672B6A2BC70B642B080090
:02400E00F13F80
:00000001FF
