:1000000001308A00B42900002C30840083130008DA
:10001000031918280130F800F701F70B0D28F80B29
:100020000C284A30F700F70B13281628800B0A28F3
:1000300008002008043C031D20280130A0002128CE
:10004000A00A08001E30AC0004208608031D2528E5
:100050001E30AC000420080028100130A6000F302C
:1000600085006430AC00042005100130A000281881
:1000700064281920861F44280130A6000F3085000F
:100080000510281422206328061F4E280230A600DF
:100090000F3085008510281422206328861E5828DA
:1000A0000330A6000F308500051128142220632894
:1000B000061E62280430A6000F3085008511281422
:1000C000222063282810372885010430A900FA303F
:1000D000AC000420A90B67280F3085000230A9006E
:1000E000FA30AC000420A90B7028D5292208831609
:1000F0009B008312200883169A001C1583120B089C
:10010000F7008B13831655309D00AA309D009C1478
:100110009C1888281C11770883128B04A20A0800F7
:100120002B08013A03199E28033A0319A028013A23
:100130000319A228073A0319A428A6280510A828FD
:100140008510A8280511A8288511A8288501A828A8
:100150000800F701F8012D0803102E18F707F70C17
:10016000F80CAE18F707F70CF80C2E19F707F70C78
:10017000F80CAE19F707F70CF80C2E1AF707F70C66
:10018000F80CAE1AF707F70CF80C2E1BF707F70C54
:10019000F80CAE1BF707F70CF80C08001230AD0294
:1001A000031CE1282D3084008313FC3080050310EC
:1001B000800C800C00080319E128DF280000800B68
:1001C000DE280800AA012A08283C031C0C29AB01E0
:1001D0002B08043C031C0A2986152908063CAC00A0
:1001E000F030AD002C08AE00A9207808AC002C0837
:1001F000AD00CE2086112908063CAC00F030AD00E1
:100200002C08AE00A9207808AC002C08AD00CE2048
:10021000AB0AE828AA0AE32808002808013A0319CB
:100220001B29033A03192329013A03192729073AFD
:1002300003192B292F290230A9009130AC0004208A
:10024000A90B1D2930296430AC000420302932303C
:10025000AC00042030290F30AC00042030293029B4
:100260000800A1012208210203184E292108831643
:100270009B009C131C141A088312A3002308AB00D4
:1002800090202308A900E2202608A8000D210F30A5
:1002900085002608A8000D21A10A3229D929A1012B
:1002A0000130A0002208210203188E2927188E2968
:1002B0002810281876291920861F62290130A500E8
:1002C00028147529061F68290230A50028147529ED
:1002D000861E6E290330A50028147529061E742970
:1002E0000430A500281475292810592921088316DF
:1002F0009B009C131C141A088312A40025082402D6
:100300000319832927142508AB0090202508A9008C
:10031000E22022200F308500A10A5229DA2925087F
:10032000AB009020A9012908643C031CAC29AA0158
:100330002A08043C031CAA2986152808063CAB00A1
:10034000AC00042086112808063CAB00AC00042059
:10035000AA0A9829A90A93290430AB00FA30AC0004
:100360000420AB0BAE29F629840183131F308305CB
:1003700083168E15073083129F00F0306600003020
:10038000650006108610061186118B0183168C17E6
:10039000C03083128B04A5012508A400A300A1008E
:1003A000A20027100130A0002C2876202718F3295E
:1003B00031294F2976202718F2290530AB009020EB
:1003C0000130A900E2200230A900E2200430A90097
:1003D000E2200F3085000430A800FA30AC00042081
:1003E000A80BED29D6290430A8008F29CB2963005A
:02400E00793FF8
:00000001FF
;PIC16F628A
;CRC=C25C  CREATED="07-feb-13 20:25"
